:20000000B6C10000E5C10000E3C10000E1C10000DFC10000DDC10000DBC10000D9C1000009
:20002000D7C10000D5C10000D3C10000D1C10000CFC100000C948236CBC10000C9C100006E
:20004000C7C100000C94D536C3C10000C1C10000BFC100000C943437BBC100000C94783513
:20006000B7C100000C9442350C941835B1C10000AFC10000ADC10000ABC10000A9C10000DE
:20008000A7C10000A5C10000A3C10000A1C100000C94E2340C94B8349BC100000C949337C4
:2000A00097C1000095C100000C94B73891C100008FC100008DC100008BC100000C94C23530
:2000C00087C1000085C1000083C1000081C100007FC100007DC100007BC1000079C1000018
:2000E00077C100005A44410056544700524D4300475356004753540047534100474C4C007E
:20010000474741000001FC00F800F400F000EC00E800E4005570646174696E672074696DD9
:20012000652E2E2E00496E636F727265637420536F6E6720466F726D617421005247423DAE
:200140006F6666005247423D6F6E004D6F6E74683A004461793A00446F776E206C6F6E676F
:200160002E2E2E2E00446F776E2073686F7274005570206C6F6E672E2E2E2E00557020733A
:20018000686F7274004D6F6465206C6F6E672E2E2E2E004D6F64652073686F727400576108
:2001A0006B652075702C204E656F2100426C75653D00475245454E3D005245443D00526599
:2001C000616465642066726F6D20454550524F4D0000000A0B02090C0D0E08070304010077
:2001E0000000000000000000000000000000000000000000000000000000000000121110CC
:20020000000000000000000000000000000000000000000000000002010000002100240096
:2002200027002A002D003000330001010000040107010A014661756C7479204453333233FF
:200240003121004453333233315F543D0053746F7020546573740054656D702E2073656E6C
:20026000736F72206E6F7420666F756E642E0053746172742054657374004669726D77611B
:2002800072652076657273696F6E3A20005761726E696E67212052544320444F4E2754206B
:2002A000524553504F4E44210000002200250028002B002E003100340002010000050108C4
:2002C000010B01000020002300260029002C002F00320000010000030106010901050505CD
:2002E00005070508080808020202020A0A080804040404010101010101010103030303037A
:20030000030303040707070C0C0C0C0C0C0C0C0202020206060606060606060B0B0B0B0BEC
:200320000B0B0B010210202008081020401020408002010201080402010102040810204045
:2003400080804020100804020180040201804020100804020108040201010204081020400A
:2003600080010204081020408000A13AFE4111241FBECFEFD1E2DEBFCDBF00E00CBF29E084
:20038000A2E0B5E001C01D92A83DB207E1F715E0A0E0B2E0E4E3FEE800E00BBF02C00790A9
:2003A0000D92A230B107D9F711E0C6EBD1E000E006C021970109802FFE010E94E444C53B11
:2003C000D10780E00807A9F70E945A3C0C94094717CE8F929F92AF92BF92CF92DF92EF92F2
:2003E000FF92CF932091F9083091FA0882179307E8F54B01AA24BB24C82DC52ED62EE72E8B
:20040000FF24BC2DA42F2091FE08222361F0829E40011124C92D2C9D60011124BD2D249F18
:20042000F0011124AF2FE0910409E090FF08F090000930910109E31323C09C01220F331F76
:20044000820F931F8E0D9F1DE0910109E80FF92FF11DC083E0910209E80FF92FF11DB0833B
:2004600020910309820F911DFC01A083CF91FF90EF90DF90CF90BF90AF909F908F900895AB
:20048000880F991F880F991F8E0D9F1D472F552766277727222349F030E0249F7001259FC4
:2004A000F00C349FF00C11244F2DE80FF92FF11D4083CACF982F8091BC09823009F465C0C6
:2004C000893009F490C0813021F5E091BD09E93000F5F0E08827E059FD4F8F4F0C94E44460
:2004E00079028B02900298029D02A502AA02B202BC021092B8099C3261F08091BF09826027
:200500008093BF0990538AE0989F902D11249093B30981E008958091B3098053980FF7CFA0
:2005200090538AE0989F902D11249093B209F1CF8091B2098053980FF8CF90538AE0989F16
:20054000902D11249093B109E4CF8091B1098053980FF8CF9C32E9F68091BA098460809395
:20056000BA09D7CF9C32C1F390538AE0989F902D11249093B809CDCF9C3271F38091B80996
:200580008053980F9093B809E7CF8091BD098111C0CF913311F0913421F483E08093B90978
:2005A00008C0903321F09E3411F0963531F41092B9098091BA098160D2CF923311F0943494
:2005C00011F484E0EBCF87E0933341F386E0943329F385E0953311F3963319F0953409F089
:2005E00098CF81E0DBCF8091BD09823031F150F48823C1F0813009F08CCF8091B509805397
:20060000980F18C0843031F100F1853009F081CF8091B7098053980F9093B7098091BA0994
:2006200082609DCF9C3209F474CF90538AE0989F902D11249093B5096CCF90538AE0989F48
:20064000902D11249093B60964CF8091B6098053980FF8CF90538AE0989F902D11249093E9
:20066000B70957CF80915D09E0915E09F0915F09F8949181982B91832281382F30952323D2
:200680002283A7E0B0E01197F1F7918193239183A3E2B0E01197F1F790817894EFECF0E0C5
:2006A0003197F1F7982381E009F480E0089590915D09E0915E09F0915F09292F209580FFA0
:2006C00014C0F8948281822382838181892B8183A3E2B0E01197F1F78281982B92837894C7
:2006E00087ED90E00197F1F70895F8948281822382838181892B8183AFEFB0E01197F1F748
:200700008281982B928378948FE090E0EBCF0F931F93CF93DF93082FC8E0D0E011E081E050
:20072000902F912309F480E0C2DF110F2197B9F7F894E0915E09F0915F09918180915D09EA
:20074000809598239183E0915E09F0915F099281892382837894DF91CF911F910F91089567
:2007600080915D09E0915E09F0915F09F8949181282F20959223918378943DE743E050E04B
:20078000315029F1DA011197F1F790819823C1F3F8949281922392839181982B9183789475
:2007A000ABE7B7E01197F1F7F894918192239183A3E1B1E01197F1F79081982381E009F04E
:2007C00080E07894E3E6F6E03197F1F7089580E00895982F2091D00681E0213208F043C0C7
:2007E0008091AC068111FCCF8091CF0632E03093AC069093AB069FEF9093AA061092A906E6
:200800002093A806AFEAB6E0E8E8F6E090E0291331C01092870690918706880F892B8093CA
:20082000870680918606813049F510928606809187068093BB008091BC0083FDF8CF85EC80
:200840008093BC008091AC068230E1F38091AA068F3FB1F08091AA068032A1F08091AA068B
:20086000803391F084E01092AE061092D0061092AD0608953D9131939F5FC9CF85EEE0CFD6
:2008800080E0F1CF82E0EFCF83E0EDCF089508950895AF92BF92CF92DF92EF92FF920F930A
:2008A0001F93CF93DF936C017B018B01040F151FEB015E01AE18BF08C017D10759F069912C
:2008C000D601ED91FC910190F081E02DC6011995892B79F7C501DF91CF911F910F91FF9019
:2008E000EF90DF90CF90BF90AF900895FC01538D448D252F30E0842F90E0821B930B5417A5
:2009000010F0CF96089501970895FC01918D828D981761F0A28DAE0FBF2FB11D5D968C91BE
:20092000928D9F5F9F73928F90E008958FEF9FEF0895FC01918D828D981731F0828DE80FB1
:20094000F11D858D90E008958FEF9FEF0895FC01918D228D892F90E0805C9F4F821B9109CE
:200960008F73992708958FED96E0F1DF21E0892B09F420E0822F08958CE797E0E8DF21E0A4
:20098000892B09F420E0822F0895FC01A48DA80FB92FB11DA35ABF4F2C91848D90E00196DD
:2009A0008F739927848FA689B7892C93A089B1898C91837080648C93938D848D981306C01C
:2009C0000288F389E02D80818F7D80830895EF92FF920F931F93CF93DF93EC0181E0888FB8
:2009E0009B8D8C8D98131AC0E889F989808185FF15C09FB7F894EE89FF896083E889F9892D
:200A000080818370806480839FBF81E090E0DF91CF911F910F91FF90EF900895F62E0B8D45
:200A200010E00F5F1F4F0F731127E02E8C8D8E110BC00FB607FCFACFE889F989808185FF96
:200A4000F5CFCE01A2DFF2CFEB8DEC0FFD2FF11DE35AFF4FF0829FB7F8940B8FEA89FB89A4
:200A600080818062D0CF0F931F93CF93DF938C01D0E0C0E0F801EC0FFD1F6491662339F038
:200A80008CE797E0A4DF892B11F02196F3CFCE01DF91CF911F910F910895CF93DF93EC016E
:200AA000888D8823B1F0AA89BB89E889F9898C9185FD03C0808186FD0CC00FB607FCF7CF2B
:200AC0008C9185FFF2CF808185FFEDCFCE015DDFEACFDF91CF91089580E090E0892B21F0AD
:200AE0004BDF81110E94000080E090E0892B21F03ADF81110E94000080E090E0892B49F0F9
:200B000080E090E0892B29F00E94000081110E94000080E090E0892B49F080E090E0892B21
:200B200029F00E94000081110C94000008958150823108F05AC0E82FF0E08827ED55FA4F74
:200B40008F4F0C94E444C305C705B505BB05BF05F505CA05D005D405DA05DE05E205E80510
:200B6000EC05F505F005F605FA05809180008F77809380000895809180008F7DF9CF80915E
:200B80008000877FF5CF84B58F7784BD089584B58F7DFBCF8091B0008F778093B0000895B8
:200BA0008091B0008F7DF9CF809190008F77809390000895809190008F7DF9CF80919000A3
:200BC000877FF5CF8091A0008F778093A00008958091A0008F7DF9CF8091A000877FF5CF44
:200BE000809120018F77809320010895809120018F7DF9CF80912001877FF5CFCF93DF9316
:200C0000282F30E0F901EF52FE4F8491F901ED5DFC4FD491F901E352FD4FC491CC2399F094
:200C2000811185DFEC2FF0E0EE0FFF1FED53FD4FA591B491EC91ED2381E090E009F480E0F6
:200C4000DF91CF91089580E090E0FACF1F93CF93DF93282F30E0F901EF52FE4F8491F9010A
:200C6000ED5DFC4FD491F901E352FD4FC491CC23A1F0162F81115BDFEC2FF0E0EE0FFF1F13
:200C8000E755FD4FA591B4918FB7F894EC91111108C0D095DE23DC938FBFDF91CF911F9175
:200CA0000895DE2BF8CFCF93DF9390E0FC01ED5DFC4F249183529D4FFC0184918823C9F005
:200CC00090E0880F991FFC01E65EFD4FA591B491FC01E755FD4FC591D49161110DC09FB778
:200CE000F8948C91209582238C938881282328839FBFDF91CF910895623051F49FB7F8944F
:200D00003C91822F809583238C93E8812E2BEFCF8FB7F894EC912E2B2C938FBFEACF4F92AC
:200D20005F926F927F928F929F92AF92BF92CF92DF92EF92FF920F931F93CF93DF9300D0F0
:200D40001F921F92CDB7DEB72091DE0627FD2BC149835A836B837C838C0161E08091DD061B
:200D6000A2DF8091DE068D834801B12CA12C8D7F09F031C160E072E18AE790E0A501980150
:200D80000E94C84429013A017A01690191E0C91AD108E108F108AFEFCA16D104E104F1041F
:200DA00009F00CF4C7C060E472E48FE090E0A50198010E94C84469017A01B1E0CB1AD10819
:200DC000E108F1088D81823009F06AC082E09FEFC916D104E104F10409F00CF45EC160E96F
:200DE00070ED83E090E0A50198010E94C84469017A01A1E0CA1AD108E108F10883E0BFEFC0
:200E0000CB16D104E104F10409F00CF446C168E478EE81E090E0A50198010E94C844690168
:200E20007A0181E0C81AD108E108F10884E09FEFC916D104E104F10409F00CF42EC164E28B
:200E400074EF80E090E0A50194010E94C84469017A01B1E0CB1AD108E108F10885E09FEF6D
:200E6000C916D104E104F10409F008F416C162E17AE780E090E0A50194010E94C844690151
:200E80007A01B1E0CB1AD108E108F1088FEFC816D104E104F10411F008F0F0C086E0FDC0CF
:200EA0008FEFC816D104E104F10409F00CF491C068E478EE81E090E0A50198010E94C8446D
:200EC00069017A0191E0C91AD108E108F108AD8184E0A111C4CF83E0AFEFCA16D104E104AC
:200EE000F10461F15CF162E17AE780E090E0A50194010E94C84469017A0181E0C81AD10800
:200F0000E108F10884E09FEFC916D104E104F104A9F0A0F0730162019AE0F594E794D79486
:200F2000C7949A95D1F7A1E0CA1AD108E108F10885E004C081E0AD81A111AFC095B5987F05
:200F4000892B85BD89819A81AB81BC812FEF3FEFA901892B8A2B8B2B79F0D801AA0FBB1F23
:200F600029813A814B815C810E94E24328EE33E040E050E00E94C0439D81913009F45CC086
:200F8000923009F46BC091110EC0C7BC2093D9063093DA064093DB065093DC0680916E0047
:200FA000826080936E000F900F900F900F900F90DF91CF911F910F91FF90EF90DF90CF90B7
:200FC000BF90AF909F908F907F906F905F904F90089582E0B0CF60E072E18AE790E0A501C1
:200FE00098010E94C84469017A01B1E0CB1AD108E108F10891E0C114D10481E0E806F10435
:2010000084F068E478EE81E090E0A50198010E94C84469017A0191E0C91AD108E108F108F8
:2010200093E0AD81A13009F08DCF80918100887F892B8093810086CFD0928900C0928800EE
:201040002093D5063093D6064093D7065093D80680916F00826080936F00A5CFC092B30095
:201060002093D1063093D2064093D3065093D4068091700082608093700095CF73016201C1
:201080008AE0F594E794D794C7948A95D1F7B1E0CB1AD108E108F10887E09091B100987FB4
:2010A000892B8093B1004ECF3FB7F8948091380690913906A0913A06B0913B0626B5A89B59
:2010C00005C02F3F19F00196A11DB11D3FBFBA2FA92F982F8827BC01CD01620F711D811D54
:2010E000911D42E0660F771F881F991F4A95D1F708950F931F93CF93DF9300D000D000D0DA
:20110000CDB7DEB78091FF0890910009892B09F465C0CADF009105091091060920910709E5
:2011200030910809601B710B820B930B6C3271408105910570F3F8948091FB089091FC0828
:201140009A838983E091FF08F0910009DF011196808189879091F708E0910909F0910A0995
:2011600080910B09992309F444C09081982B98879081809589238F838F818C8388E08B8321
:2011800058856F8149853B812C8189819A81508347FD252F3A952083262F39F0441F00C0A8
:2011A00000006083000000C0F2CF38E04D9160830000019761F7F0930A09E0930909498717
:2011C0003B832C839A83898378946EDF6093050970930609809307099093080929960FB632
:2011E000F894DEBF0FBECDBFDF91CF911F910F9108959081982B98879081809589238F83D9
:201200008F818E8388E08D8358856F8149853D812E8189819A81508347FD252F00C000C01D
:20122000208300C000C000C000C000C060830000262F3A9541F0441F000000C000C000C070
:2012400000C000C0E8CF38E04D9100C0608300C0019709F7F0930A09E093090949873D83BB
:201260002E83B0CF8F929F92AF92BF92CF92DF92EF92FF924B015C0117DF6B017C0114DFFB
:201280006C197D098E099F09683E734081059105B0F321E0821A9108A108B10888EEC80E08
:2012A00083E0D81EE11CF11C81149104A104B10431F7FF90EF90DF90CF90BF90AF909F9086
:2012C0008F9008952FB7F894609134067091350680913606909137062FBF08956093280622
:2012E0007093290680932A0690932B06645D7E4F8F4F9F4F60932406709325068093260641
:201300009093270682E090E09093230680932206D9DF60931E0670931F06809320069093D1
:20132000210608952F923F924F925F926F927F928F929F92AF92BF92CF92DF92EF92FF92AB
:201340000F931F93CF93DF93382E962E842E222E84E6E816F1040CF459C092EBE91A97E0CC
:20136000F90AE0923206009331062092300630922E0690922D0680922C06AE2DB0E020E80C
:2013800033E341EE51E00E94E2432B013C0122EB37E0FF24E4E6F0E0C0E9D1E0C901825BC5
:2013A00097408E159F05B4F19EE4E91A98EFF90AC70164E670E00E94B5446C01C70160E9E0
:2013C00071E00E94B5445C01CCEBD3E0E1E0F0E0112783E0E822FF24E017F1070CF042C014
:2013E000E230F10591F5E114F10479F5C114D10419F4A114B10449F580E8480E8BE3581E06
:2014000086E2681E711C31962196E6CF8EE1E80EF11CA7CFC90183709927892B99F4C901AE
:20142000BF010E94B544892B31F4C901BE010E94B544892B39F490E8490E91E5591E91E046
:20144000691E711C2F5F3F4FA9CFA881B0E020E831E541E050E00E94E243460E571E681EA6
:20146000791ED1CF292D30E0ACE3B0E00E94EC436B017C01C80CD11CE11CF11C232D30E0CB
:20148000A0E1BEE00E94EC43C60ED71EE81EF91E822D8150990BDC0120E831E541E050E006
:2014A0000E94F2446C0D7D1D8E1D9F1D640D751D861D971DDF91CF911F910F91FF90EF9052
:2014C000DF90CF90BF90AF909F908F907F906F905F904F903F902F9001CFCF92DF92EF92D5
:2014E000FF920F931F93EEDE8B019C01C0901E06D0901F06E0902006F090210660912806BD
:201500007091290680912A0690912B060C191D092E093F09083E134021053105E0F0DC019C
:20152000CB010196A11DB11D8093280690932906A0932A06B0932B06B701A60148515C4FAF
:201540006F4F7F4F40931E0650931F066093200670932106C8CF1F910F91FF90EF90DF9059
:20156000CF9008954F925F926F927F928F929F92AF92BF92CF92DF92EF92FF920F931F936F
:20158000CF93DF934B015C0180911A0690911B06A0911C06B0911D0688159905AA05BB05FA
:2015A00009F4C6C08CE3C82ED12CE12CF12CC501A70196010E94C04360932C06CA01B901C8
:2015C000A70196010E94C04360932D06C501B40120E13EE040E050E00E94C043CA01B901ED
:2015E00028E130E040E050E00E94C04360932E06C501B40120E831E541E050E00E94C04327
:2016000069017A01CA01B9016C5F7F4F8F4F9F4F27E030E040E050E00E94C0436F5F60932E
:201620002F06412C512C320140E004E610E0C0E9D1E0242F30E02E54384FF901E370FF2725
:201640003097F9F4C901B8010E94B544892B31F4C901BE010E94B544892B99F48EE691E095
:20166000A0E0B0E0480E591E6A1E7B1ED301C201AA27BB27C816D906EA06FB0638F04F5F9E
:20168000D8CF8DE691E0A0E0B0E0ECCF40933206C90164E670E00E94B544EC01C90160E9EA
:2016A00071E00E94B544309721F42097D9F40097C9F04DE651E060E070E0441A550A660A6D
:2016C000770AC418D508E608F708ACEBB3E020E0213069F43097E9F5209711F40097C9F555
:2016E0004DE106C04EE651E060E070E0E6CF4C9150E070E060E031E0320FC416D506E606BC
:20170000F70640F0C41AD50AE60AF70A1196232F3C30F1F62F5F20933106C394C09230064B
:2017200080921A0690921B06A0921C06B0921D06DF91CF911F910F91FF90EF90DF90CF907F
:20174000BF90AF909F908F907F906F905F904F9008954CE1CDCFC1DE05DF8091320690E02F
:201760008E54984F0895B9DEFDDE8091310690E00895B3DEF7DE8091300690E00895ADDEF7
:20178000F1DE80912C0690E00895A7DEEBDE80912D0690E00895A1DEE5DE20912E0622231F
:2017A00031F0822F90E02D3020F00C9708958CE090E0089592DED6DE80912E0690E008954B
:2017C000CF92DF92EF92FF92CF93DF93EC017ADD6B017C018F8512DA9C0181E021153105BA
:2017E00009F480E0898B8889811105C091E0232B09F090E0998B29898A89281721F0CD8A58
:20180000DE8AEF8AF88E8D899E89AF89B88DB701A601481B590B6A0B7B0BDB01CA01CB8094
:20182000DC80ED80FE80C816D906EA06FB0664F43A81231749F02A83222349F04B895C8949
:201840004F5F5F4F5C8B4B8B3A81311117C0CF80D884E984FA84C816D906EA06FB0634F42F
:201860008B899C89998388831C8A1B8A2A8BDF91CF91FF90EF90DF90CF900895CB84DC8410
:20188000ED84FE84C816D906EA06FB067CF78B899C89919581959109E5CF85ED8093BC0030
:2018A0008091BC0084FDFCCF1092AC0608952091F705260F3327331F21323105ECF4209176
:2018C000AC06FC0190E080E0243069F082E00895A091F7052191AC0149525A4FA40FB52F76
:2018E000B11D2C930196861798F38091F705680F6093F70580E0089581E008950895E09120
:20190000650680916406E81730F4F0E0EA59F94F808190E008958FEF9FEF08959091650620
:20192000809164062FEF3FEF981748F4E92FF0E0EA59F94F208130E09F5F90936506C9017B
:2019400008958091640690916506891B990B0895CF92DF92EF92FF920F931F93CF93DF93F2
:201960007C01CB018A012091AD06222389F0EB016B01C40ED51ECC15DD0561F06991D7016E
:20198000ED91FC910190F081E02DC7011995F3CF642F8DDFC801DF91CF911F910F91FF907E
:2019A000EF90DF90CF900895CF93DF931F92CDB7DEB769832091AD062223F9F02091D0069A
:2019C000203258F021E030E0FC013383228390E080E00F90DF91CF9108958091AE06E82F4C
:2019E000F0E0E155F94F998190838F5F8093AE068093D00681E090E0ECCF61E0CE0101969B
:201A000056DFF8CFDF92EF92FF920F931F93CF93DF93182FF62ED42ED22F81E08093AD068A
:201A200088E68093CF061092AE061092D00660E089E198E0B9DFCAE08D2D6C2F0E9495444E
:201A40008295807F682F690F89E198E0ADDF8F2D6C2F0E9495448295807F682F690F89E192
:201A600098E0A2DF812F6C2F0E9495448295807F682F690F89E198E097DF61E089E198E007
:201A800093DF8D2F6C2F0E9495448295807F682F690F89E198E088DF802F6C2F0E949544CF
:201AA0008295807F682F690F89E198E07DDF8E2D6C2F0E9495448295807F682F690F89E163
:201AC00098E072DF60E089E198E06EDF81E0DF91CF911F910F91FF90EF90DF900C94E90344
:201AE00090E080E00895CF93DF93D0E0C0E040E050E0BA01CE010E94E9012196C830D1056A
:201B0000B1F7DF91CF91F5CA4091B7055091B8052091B5053091B60580E09CE342175307EA
:201B200011F48FEF9FEF4F5F5F4F4330510529F05093B8054093B70508951092B805109289
:201B4000B7052F5F3F4F2330310529F03093B6052093B50508951092B6051092B50508952D
:201B6000CF92DF92EF92FF920F931F93CF93DF939091B40591110BC08FEF9FEFDF91CF9136
:201B80001F910F91FF90EF90DF90CF9008959091B305992389F3082FC091B205D0E080916B
:201BA000AA0581110CC08EDB6093A6057093A7058093A8059093A90581E08093AA0582DB51
:201BC000C090A605D090A705E090A805F090A9056C197D098E099F096D32714081059105FD
:201BE000A8F01091A5056EDB6093A6057093A7058093A8059093A90591E091279093A505E5
:201C0000992331F11092A4051092A3052091A3053091A405209530958091A205282326FFEC
:201C20001CC081E08093A10527FF1AC081E08093A0058091A505882309F49ECF02C0D59599
:201C4000C7950A95E2F7C0FF97CF80E09CE396CFD093A405C093A305D9CF1092A105E4CF9D
:201C60001092A005E6CFDF92EF92FF920F931F93CF93DF9300919E0510919F0508301105F6
:201C800090F4D82FF8018827E75BF14F8F4F0C94E444510E6D0E710E510E6D0E730E750EB2
:201CA000860E0E94B0030F5F1F4F0830110509F470C010939F0500939E05609198057091D8
:201CC000990580919A0590919B05DF91CF911F910F91FF90EF90DF9008958CEC0E94870317
:201CE000E2CF84E4FBCF8EEBF9CF98E0E92EF12CC0E0D1E00E9432038111CD2BDD0F81E015
:201D0000E81AF108B9F7C0939C05CDCF88E0E82EF12CC0E0DD24D3940E9432038111CD2986
:201D2000DD0C81E0E81AF108B9F7C0939D0560919C057C2F6F3F760711F470E060E0072E87
:201D4000000C880B990B0E94884220E030E040E85DE30E94E742D1110FC020E030E040E2AE
:201D600051E40E94E742609398057093990580939A0590939B0597CF26E636E646EE5FE3B9
:201D80000E94E74220E030E040E052E40E94FC43E4CF10929F0510929E058FCFCF93DF93C1
:201DA000EC012196FC0120812A33C9F42181243609F5229630E020E06AE0899190ED980F7D
:201DC0009A3078F4629FA001639F500D1124082E000C990BC0979A01280F391FEECFCE01A4
:201DE000DFCF30936605209365052115310511F02093340288818F3689F48A81082E000CFC
:201E0000990B9C01205331093093660520936505C397059710F4209333022496888182362C
:201E2000F1F4229630E020E06AE0899190ED980F9A3068F4629FA001639F500D1124082EDB
:201E4000000C990BC0979A01280F391FEECF309366052093650530933202209331022091BB
:201E6000310230913202032E000C440B550B60E67AEE80E090E00E94C84482E0220F331F3D
:201E8000441F551F8A95D1F720936105309362054093630550936405CE01DF91CF9108957E
:201EA000CF92DF92EF92FF920F931F93CF93DF93EC018B0107DACE80DF80E884F984AB017A
:201EC000BC014C195D096E097F0988819981092E000CAA0BBB0B84179507A607B707A0F464
:201EE0008A85882389F01A868D811C821D82823058F181E090E0DF91CF911F910F91FF9049
:201F0000EF90DF90CF9008958B859C8580179107C1F481E08C838D818F5F8D83D3D96E83A9
:201F20007F838887998781E08A872D818A819B81281719064CF01C821D821A868FEF9FEFA6
:201F4000DACF8C81811103C090E080E0D4CF0F3F1F4FD1F7E0CFFC0111821282108281E0B9
:201F600084838583168287E0838317821086118608958EBD00000DB407FEFDCF8EB508952D
:201F80009091AC069111FCCF282F91E09093AC069093AB063FEF3093AA061092A906380F57
:201FA0003093A8069093870690918706906D9093870690918606913019F5109286069091DA
:201FC00087069093BB009091BC0093FDF8CF95EC9093BC009091AC069130E1F39091A906CA
:201FE000981710F42091A906A8E8B6E0E6E6F6E080E0821307C01092650680936406089523
:2020000095EEE6CF9D9191938F5FF3CFCF9381E08093AD0688E68093CF061092AE061092AF
:20202000D00660E089E198E0BFDC81E00E94E90387E090E0A5DF89E198E070DC982F9295A7
:202040009F70CAE08F709C9F800D112490E0909362068093610689E198E060DC982F92954A
:202060009F708F709C9F800D112490E0909359068093580689E198E051DC982F92959370F2
:202080008F709C9F800D112490E0909357068093560689E198E042DC89E198E03FDC982F21
:2020A00092959F708F709C9F800D112490E090935B0680935A0689E198E030DC982F9295AB
:2020C0009F708F709C9F800D112490E090935D0680935C0689E198E021DC982F92959F70AE
:2020E0008F709C9F800D112490E090935F0680935E06CF910895CF93DF93EC018881998194
:20210000009711F00E949445198218821D821C821B821A82DF91CF910895FC018081918184
:20212000009711F00C9494450895FC0101900020E9F73197AF01481B590BBC018CE797E07D
:202140000C944904CF93DF930E943305EC0184E194E0EBDF8C0F9D1FDF91CF9108950F93EE
:202160001F9380915C0290915D02892B09F447C0809170058823A1F0A5D800916C05109124
:202180006D0520916E0530916F05601B710B820B930B693E73408105910588F1109270054C
:2021A00009DB20915602309157028217930739F5ECDA209158023091590282179307F9F4AA
:2021C000DEDA20915A0230915B0282179307B9F479D860936C0570936D0580936E05909369
:2021E0006F0581E0809370058EE991E0ABDF8091390290913A0290935506809354061F91CC
:202200000F9108958F929F92AF92BF920F931F93CF93DF93CDB7DEB7A1970FB6F894DEBF36
:202220000FBECDBF19A2423008F44AE08E010F5D1F4F842E912CB12CA12CA50194010E9493
:20224000C043E62FB901CA01EA30ECF4E05DD801EE938D01232B242B252B79F790E080E095
:20226000109711F0CD0161DFA1960FB6F894DEBF0FBECDBFDF91CF911F910F91BF90AF907C
:202280009F908F900895E95CE2CFCF92DF92EF92FF92CF93DF936C01990FEE08FF08F7FE9E
:2022A0001DC06DE28CE797E00E94E704EC0166277727CB016C197D098E099F094AE0A2DFA2
:2022C000C80FD91F84E194E030DF8C0F9D1FDF91CF91FF90EF90DF90CF9008954AE0C701B5
:2022E000B60190DFEC01EECFCF93DF93682F70E090E080E04AE086DFEC0184E194E015DF3A
:202300008C0F9D1FDF91CF910895CF93DF93FC0144815581608171818CE797E00E944904E1
:20232000EC0184E194E001DF8C0F9D1FDF91CF910895FC0180819181009711F00C94144295
:2023400060E070E0CB0108950F931F93CF93DF938C01EB01FC01808191810097E1F0688182
:20236000798161157105A9F0428153812C813D814217530770F00E9402478C819D81F801BA
:20238000958384831D821C82DF91CF911F910F9108950E94944588819981F8019183808376
:2023A0008A819B81938382838C819D8195838483198218821B821A82E5CF0F931F93CF93B9
:2023C000DF93EC0188819981009759F02A813B812617370730F081E0DF91CF911F910F9118
:2023E00008958B016F5F7F4F0E941D46009759F0998388831B830A832C813D81232B59F7D8
:20240000FC011082E8CF80E0E7CFEF92FF920F931F93CF93DF936115710541F480E0DF9135
:20242000CF911F910F91FF90EF90089541155105A9F07B01EC010C811D81040F151FB80168
:20244000BCDF882359F3288139818C819D81B701820F931F0E9402471D830C8381E0DFCF38
:20246000CF93DF93EC01FB0101900020E9F73197AF01461B570BC9DF811102C0CE013BDEEF
:20248000CE01DF91CF910895CF93DF93EC01FB014481558160817181B8DF811102C0CE011B
:2024A0002ADECE01DF91CF910895EF92FF920F931F93CF93DF93EC017B018A01BA017DDF93
:2024C00081110AC0CE0117DECE01DF91CF911F910F91FF90EF9008951D830C83B701888152
:2024E00099810E940247F0CFFB0101900020E9F73197AF01461B570BD8CF0F931F93CF93F3
:20250000DF93CDB7DEB762970FB6F894DEBF0FBECDBF8C01CB01F801118210821382128250
:20252000158214824AE0BE016F5F7F4F0E943A42BE016F5F7F4FC801D7DF62960FB6F894A8
:20254000DEBF0FBECDBFDF91CF911F910F910895CF93DF93EC01FB018617970741F06081BE
:2025600071816115710539F0448155819EDFCE01DF91CF910895BFDDFACFFC011182108279
:202580001382128215821482E3CFFC01118210821382128215821482FB0101900020E9F72E
:2025A0003197AF01461B570B80CFAF92BF92CF92DF92EF92FF920F931F93CF93DF936C0186
:2025C0005B017A0189012417350720F48F2D7901042F182F66E174E0C601D7DFD5011496C7
:2025E000CD91DC91EC16FD06D8F40C171D0708F4E801D501ED91FC911197EC0FFD1F1081E2
:2026000010826D917C916E0D7F1DC6016115710599F06ADFF50180819181C80FD91F18830E
:20262000C601DF91CF911F910F91FF90EF90DF90CF90BF90AF9008955EDDECCF4F925F92E4
:202640006F927F928F929F92AF92BF92CF92DF92EF92FF920F931F93CF93DF9300D000D0D8
:20266000CDB7DEB77C014B015A018091B905811134C081E08093B90598E7692E95E0792E64
:2026800022E7422E25E0522E10E000E00F5F1F4F680181E0C81AD1089801A601B401CE0147
:2026A000019683DFCE01019644DED3016D933D01CE01019632DD9801A601B501CE010196B6
:2026C00074DFCE01019635DEF20161932F01CE01019623DD06301105C9F69091710588E7A0
:2026E000C82E85E0D82EE2E7F5E08601A801D8018C919A3008F04BC08F5F8C930F5F1F4FFF
:20270000DA018C918A3019F4D80111971C923196B5E00E371B0751F79F5F943109F43DC003
:202720009093710566E174E0C7012FDFFE0131965F01D6018D916D014AE0B50190E00E9414
:202740003A42F50101900020E9F73197AF014A195B09B501C70159DE0C151D0551F7C7012F
:2027600026960FB6F894DEBF0FBECDBFDF91CF911F910F91FF90EF90DF90CF90BF90AF90CC
:202780009F908F907F906F905F904F9008952081281709F4B3CF8F5FB0CF109271051092EC
:2027A000B905C0CFCF92DF92EF92FF921F93CF93DF93CDB7DEB72C970FB6F894DEBF0FBECB
:2027C000CDBF182F60E574E0CE010796DEDE22E030E050E040E0133071F024E030E042E029
:2027E00050E01C3041F01033A1F420915B0930915C0944E050E067E579E0CE010196D5DE07
:20280000BE016F5F7F4FCE0107969EDDCE01019684DCCE0107968DDD6B01CE0107967DDCA9
:20282000C6012C960FB6F894DEBF0FBECDBFDF91CF911F91FF90EF90DF90CF9008958F92AE
:202840009F92AF92BF92CF92DF92EF92FF920F931F93CF93DF93CDB7DEB72C970FB6F8947C
:20286000DEBF0FBECDBF8C016A017B0180919005811111C00E946209645B7B4F8F4F9F4F83
:2028800060938C0570938D0580938E0590938F0581E08093900580918405811108C067E17D
:2028A00074E08EE795E071DE81E0809384050E94620980908C0590908D05A0908E05B0902B
:2028C0008F05681979098A099B09693E73408105910508F4B4C00E94620960938C057093B0
:2028E0008D0580938E0590938F0520E030E0A901C701B6010E94914420E030E040E05FE3C7
:2029000087FDB5C0C701B6010E94FC430E9460447B0177FF04C0EE24FF24E61AF70A5B01D0
:2029200039E1A31A3CEFB30A80916002909161029B012D593F4F69012A5531094901B7010C
:20294000892B09F099C0CE010796D7DD6CE174E0CE0101961ADEBE01695F7F4FCE01019697
:2029600093DD6CE174E07CDDBC018EE795E0F0DDCE010196D2DBCE010796CFDB3FECA3166C
:2029800037E0B306E0F4B701CE010796B6DD6BE174E0CE010196F9DDBE01695F7F4FCE01DC
:2029A000019672DD6CE174E05BDDBC018EE795E0CFDDCE010196B1DBCE010796AEDB87ECAB
:2029C000C816D104E0F4B701CE01079696DD6AE174E0CE010196D9DDBE01695F7F4FCE01FA
:2029E000019652DD6CE174E03BDDBC018EE795E0AFDDCE01019691DBCE0107968EDB23E17A
:202A000082169104E0F4B701CE01079676DD69E174E0CE010196B9DDBE01695F7F4FCE0180
:202A2000019632DD6CE174E01BDDBC018EE795E08FDDCE01019671DBCE0107966EDB6EE788
:202A400075E0C8019ADDC8012C960FB6F894DEBF0FBECDBFDF91CF911F910F91FF90EF90E1
:202A6000DF90CF90BF90AF909F908F900895C701B6010E94FB434ACFCE0107963EDD6CE1C3
:202A800074E0CE01019681DDBE01695F7F4FCE010196FADC6CE174E0E3DCBC018EE795E086
:202AA00057DDCE01019639DBCE01079636DB3FECA31637E0B30600F5C7016AE070E00E943E
:202AC000B544CE01079619DD6BE174E0CE0101965CDDBE01695F7F4FCE010196D5DC6BE1A4
:202AE00074E0BEDCBC018EE795E032DDCE01019614DBCE01079611DB87ECC816D10400F56A
:202B0000C7016AE070E00E94B544CE010796F5DC6AE174E0CE01019638DDBE01695F7F4F0C
:202B2000CE010196B1DC6BE174E09ADCBC018EE795E00EDDCE010196F0DACE010796EDDA97
:202B400023E18216910408F07ACFC7016AE070E00E94B544CE010796D0DC69E174E0CE0181
:202B6000019613DDBE01695F7F4FCE0101968CDC6BE174E059CF0F931F93CF93DF93CDB737
:202B8000DEB7A4970FB6F894DEBF0FBECDBF8B01833009F05BC020915B0930915C0942E06E
:202BA00050E067E579E0CE014996FFDCB80117FF04C066277727601B710B075F1F4FCE015F
:202BC0000331110508F03EC0079697DC6CE174E0CE010196DADCBE01695F7F4FCE0101962D
:202BE00053DCBC01CE010D96C8DC11E0BE01635F7F4FCE014396C1DCBE01675E7F4FCE012D
:202C0000439642DCBC0187E599E0A2DCCE01439684DACE010D9681DA112331F0CE0101960F
:202C20007CDACE01079679DACE01499676DAA4960FB6F894DEBF0FBECDBFDF91CF911F9180
:202C40000F9108950D9659DC10E0D0CF8C3009F060C020915B0930915C0944E050E067E520
:202C600079E0CE014F96A1DCB80117FF04C066277727601B710B075F1F4FCE010331110528
:202C800008F043C0439639DC6CE174E0CE010D967CDCBE016D5E7F4FCE010D96F5DBBC0189
:202CA000CE0149966ADC11E022E030E050E040E067E579E0CE01019678DCBE016F5F7F4F13
:202CC000CE0107965ADCBE01675E7F4FCE010796DBDBBE01615E7F4FD7DBBC0187E599E03E
:202CE00037DCCE01079619DACE01019616DACE01499613DA112331F0CE010D960EDACE01F3
:202D000043960BDACE014F9691CF4996F6DB10E0CBCF803309F08BCF77FF04C0662777273C
:202D2000601B710B075F1F4FCE010331110508F03DC04396E2DB6CE174E0CE010D9625DC10
:202D4000BE016D5E7F4FCE010D969EDBBC01CE01499613DC11E024E030E050E040E067E535
:202D600079E0CE01019621DCBE016F5F7F4FCE01079603DCBE01675E7F4FCE01079684DBD4
:202D8000BC0187E599E0E4DBCE010796C6D9CE010196C3D9CE014996C0D9112309F447CF37
:202DA000CE010D96BAD9CE01439640CF4996A5DB10E0D1CF0E94620960936805709369058A
:202DC00080936A0590936B0580916705882309F44EC02091BB053091BC05C901880F991F9F
:202DE0002131310599F1FC01E45CFD4F408151814150510951834083DC01A45CBD4F6D913C
:202E00007C911197FC01E853FC4F40815181641775073CF4FC01E058FC4F408151814D93CD
:202E20005C932031310501F520915C0230915D0221303105B1F420E82093A205845C9D4F9D
:202E4000FC01608171818091B20595CE40915E0250915F024C50510950935F0240935E0297
:202E6000CBCF1092A205EACF2930310539F708950E946209609368057093690580936A05FA
:202E800090936B0580916705882309F443C02091BB053091BC05C901880F991F21313105E3
:202EA00059F1FC01E45CFD4F408151814F5F5F4F51834083DC01A45CBD4F6D917C9111971D
:202EC000FC01E058FC4F40815181461757073CF4FC01E853FC4F408151814D935C932031BE
:202EE0003105A9F41092A205845C9D4FFC01608171818091B2053FCE40915E0250915F02D2
:202F0000445F5F4F50935F0240935E02D3CF2930310551F70895CF92DF92FF920F931F931C
:202F2000CF93DF93CDB7DEB7EC970FB6F894DEBF0FBECDBF6C0180915E0290915F0248979B
:202F400009F01AC10E94BF0B181619069CF40E94BF0B11E00A97A4F010E00E94BF0B181638
:202F600019060CF045C00E94BF0BBC01CE01C796C4DA20C00E94BF0B11E0873F9F4F64F3F6
:202F80000E94BF0B181619066CF50E94BF0BBC01CE01C196B2DA6CE174E0CE018B96F5DADC
:202FA000BE016F5C7F4FCE018B966EDABC01CE01C796E3DA0E94C50B18161906FCF40E948A
:202FC000C50B01E00A9704F100E00E94C50B181619060CF052C00E94C50BBC01CE018596E4
:202FE0008CDA2CC00E94BF0B919581959109CFCF0E94BF0B919581959109B7CF0E94C50B65
:2030000001E0873F9F4F04F30E94C50B1816190674F50E94C50BBC01CE014F966EDA6CE184
:2030200074E0CE014996B1DABE01615E7F4FCE0149962ADABC01CE0185969FDA0E94DA0B5E
:203040001816190604F50E94DA0BFF24F3940A970CF1F12C0E94DA0B181619060CF086C028
:203060000E94DA0BBC01CE010D9647DA2EC00E94C50B919581959109CECF0E94C50B91950E
:2030800081959109AACF0E94DA0BFF24F394873F9F4FFCF20E94DA0B181619060CF060C044
:2030A0000E94DA0BBC01CE01079627DA6CE174E0CE0101966ADABE01695F7F4FCE01019659
:2030C000E3D9BC01CE010D9658DABE01635F7F4FCE01439652DABE016B5D7F4FCE014396B3
:2030E000D3D9BE01695C7F4FCFD9BC01C60145DACE01439612D8CE010D960FD8FF2031F05C
:20310000CE0101960AD8CE01079607D8CE01859604D8002341F0CE0149960E948D10CE0146
:203120004F960E948D10CE01C7960E948D10112341F0CE018B960E948D10CE01C1960E94A4
:203140008D10C601EC960FB6F894DEBF0FBECDBFDF91CF911F910F91FF90DF90CF90089528
:203160000E94DA0B9195819591099CCF0E94DA0B91958195910976CF0E94BF0B181619062C
:203180009CF40E94BF0B11E00A97A4F010E00E94BF0B181619060CF045C00E94BF0BBC013A
:2031A000CE01C796AAD920C00E94BF0B11E0873F9F4F64F30E94BF0B181619066CF50E945C
:2031C000BF0BBC01CE01C19698D96CE174E0CE018B96DBD9BE016F5C7F4FCE018B9654D917
:2031E000BC01CE01C796C9D90E94C50B18161906FCF40E94C50B01E00A9704F100E00E942A
:20320000C50B181619060CF04DC00E94C50BBC01CE01859672D92CC00E94BF0B9195819590
:203220009109CFCF0E94BF0B919581959109B7CF0E94C50B01E0873F9F4F04F30E94C50B1E
:20324000181619064CF50E94C50BBC01CE014F9654D96CE174E0CE01499697D9BE01615E93
:203260007F4FCE01499610D9BC01CE01859685D90E94CB0B18161906DCF40E94CB0BFF24B4
:20328000F3940A97E4F0F12C0E94CB0B181619060CF50E94CB0BE6CE0E94C50B9195819575
:2032A0009109D3CF0E94C50B919581959109AFCF0E94CB0BFF24F394873F9F4F24F30E947D
:2032C000CB0B181619061CF40E94CB0BEBCE0E94CB0B48CF0E94CB0B4BCFEF92FF920F93B5
:2032E0001F93CF93DF93CDB7DEB7CE54D1090FB6F894DEBF0FBECDBF8091CF0581110DC0A8
:203300000E9462096093CB057093CC058093CD059093CE0581E08093CF058091C30581117B
:203320000DC00E9462096093BF057093C0058093C1059093C20581E08093C3050E94620928
:203340000091CB051091CC052091CD053091CE05601B710B820B930B0091350210913602C0
:203360002091370230913802061717072807390708F04DC00E9462096093CB057093CC0515
:203380008093CD059093CE058091BD059091BE05009709F0DBC081E090E09093BC058093A8
:2033A000BB0588E893E1A0E0B0E08093350290933602A0933702B09338028091BD059091D7
:2033C000BE058230910581F41092BC051092BB0540E65AEE60E070E0409335025093360285
:2033E00060933702709338020196833091050CF0CDC09093BE058093BD058091BA058823C5
:2034000021F01092BC051092BB051092BA050E9462090091CB051091CC052091CD05309151
:20342000CE05601B710B820B930B603D77408105910508F06AC60E9462090091BF051091FC
:20344000C0052091C1053091C205601B710B820B930B653671058105910508F455C30E94A3
:2034600062096093BF057093C0058093C1059093C2058091BB059091BC0520914B062223A5
:2034800009F45CC3892B71F5CE01079644DD81E02091600230916102232B09F480E00E9484
:2034A000330EAB01BC01CE010D96C9D9AE01495F5F4FBE01635F7F4FCE010196BFD8BE013E
:2034C0006F5F7F4F87E599E00E94A411CE0101960E948D10CE010D960E948D10CE01079652
:2034E0000E948D108091BB059091BC05019709F08AC10E94AB0B08EE13E0B8010E94B54469
:20350000181619060CF047C00E94AB0BB8010E94B54411E00A970CF448C010E00E94AB0BCD
:20352000E8EEEE2EE3E0FE2EB7010E94B544181619060CF084C00E94AB0BB7010E94B5441F
:20354000BC01CE010D960E947D1257C0019709F034CF84E090E09093BC058093BB0588E865
:2035600093E1A0E0B0E08093350290933602A0933702B093380280914B068111C9C582E055
:2035800090E09093BE058093BD0517CF1092BE051092BD0532CF0E94AB0BB8010E94B544A4
:2035A00011E0873F9F4F0CF4B8CF0E94AB0BF8EEEF2EF3E0FF2EB7010E94B54418161906E4
:2035C000ACF50E94AB0BB7010E94B544BC01CE0143960E947D126CE174E0CE0149960E9418
:2035E000C512BE016D5E7F4FCE0149960E944412BC01CE010D960E94BD120E94B30B1816C8
:20360000190634F50E94B30B01E00A973CF100E00E94B30B181619060CF05EC00E94B30B4C
:20362000BC01CE014F960E947D1236C00E94AB0BB7010E94B544919581959109C7CF0E9439
:20364000AB0BB7010E94B54491958195910978CF0E94B30B01E0873F9F4FCCF20E94B30B31
:20366000181619069CF50E94B30BBC01CE0185960E947D126CE174E0CE018B960E94C5122A
:20368000BE016B5D7F4FCE018B960E944412BC01CE014F960E94BD120E94B90B1816190658
:2036A0000CF50E94B90BFF24F3940A9714F1F12C0E94B90B181619060CF0ECC00E94B90B75
:2036C000BC01CE01C7960E947D1234C00E94B30B919581959109C9CF0E94B30B9195819572
:2036E00091099ECF0E94B90BFF24F394873F9F4FF4F20E94B90B181619060CF0C5C00E9443
:20370000B90BBC01CE01CD960E947D126CE174E0CE018D5B9F4F0E94C512BE01635C7F4FBA
:20372000CE018D5B9F4F0E944412BC01CE01C7960E94BD12BE01695C7F4FCE01C1960E9478
:20374000BD12BE01615E7F4FCE01C1960E944412BE01635F7F4F0E944412BC01CE010796C0
:203760000E94BD12CE01875B9F4FD5DBAE01495F5F4FBE01675B7F4FCE0101960E941E13FC
:20378000BE016F5F7F4F87E599E00E94A411CE0101960E948D10CE01875B9F4F0E948D100F
:2037A000CE0107960E948D10CE01C1960E948D10CE01C7960E948D10FF2049F0CE018D5B7F
:2037C0009F4F0E948D10CE01CD960E948D10CE014F960E948D10002341F0CE018B960E9472
:2037E0008D10CE0185960E948D10CE010D960E948D10112341F0CE0149960E948D10CE0131
:2038000043960E948D108091BB059091BC05049709F07AC181E02091600230916102232B28
:2038200009F480E00E94330EAB01BC01CE01079606D80E94AB0B08EE13E0B8010E94B54400
:20384000181619066CF50E94AB0BB8010E94B54411E00A9774F110E00E94AB0B68EEE62E65
:2038600063E0F62EB7010E94B544181619060CF06AC00E94AB0BB7010E94B544BC01CE01E4
:2038800043960E947D123DC00E94B90B91958195910937CF0E94B90B91958195910910CFC4
:2038A0000E94AB0BB8010E94B54411E0873F9F4F94F20E94AB0B78EEE72E73E0F72EB7012E
:2038C0000E94B54418161906ACF50E94AB0BB7010E94B544BC01CE0149960E947D126CE1CB
:2038E00074E0CE014F960E94C512BE01675E7F4FCE014F960E944412BC01CE0143960E9442
:20390000BD120E94B30B1816190634F50E94B30B01E00A973CF100E00E94B30B1816190666
:203920000CF05EC00E94B30BBC01CE0185960E947D1236C00E94AB0BB7010E94B54491956E
:2039400081959109C7CF0E94AB0BB7010E94B54491958195910992CF0E94B30B01E0873F38
:203960009F4FCCF20E94B30B181619069CF50E94B30BBC01CE018B960E947D126CE174E07E
:20398000CE01C1960E94C512BE01655D7F4FCE01C1960E944412BC01CE0185960E94BD1203
:2039A0000E94B90B181619060CF50E94B90BFF24F3940A9714F1F12C0E94B90B18161906CD
:2039C0000CF0B6C00E94B90BBC01CE01CD960E947D1235C00E94B30B919581959109C9CF2C
:2039E0000E94B30B9195819591099ECF0E94B90BFF24F394873F9F4FF4F20E94B90B1816E6
:203A000019060CF08FC00E94B90BBC01CE018D5B9F4F0E947D126CE174E0CE01875B9F4F03
:203A20000E94C512BE016D5B7F4FCE01875B9F4F0E944412BC01CE01CD960E94BD12BE0102
:203A4000635C7F4FCE01C7960E94BD12BE016B5D7F4FCE01C7960E944412BE016D5E7F4F6B
:203A60000E944412BC01CE010D960E94BD12AE01495F5F4FBE01635F7F4FCE0101960E9452
:203A80001E13BE016F5F7F4F87E599E00E94A411CE0101960E948D10CE010D960E948D1008
:203AA000CE01C7960E948D10CE01CD960E948D10FF2051F0CE01875B9F4F0E948D10CE011D
:203AC0008D5B9F4F0E948D10CE0185960E948D10002341F0CE01C1960E948D10CE018B96FF
:203AE0000E948D10CE0143960E948D10112341F0CE014F960E948D10CE0149960E948D105B
:203B0000CE0107960E948D10C25BDF4F0FB6F894DEBF0FBECDBFDF91CF911F910F91FF90B9
:203B2000EF9008950E94B90B9195819591096DCF0E94B90B91958195910946CF892B09F0F3
:203B400062C1CE010796E7D90E94AB0B08EE13E0B8010E94B544181619060CF50E94AB0BDB
:203B6000B8010E94B54411E00A9714F110E00E94AB0B48EEE42E43E0F42EB7010E94B54432
:203B8000181619060CF05EC00E94AB0BB7010E94B544BC01CE0143960E947D1231C00E94EA
:203BA000AB0BB8010E94B54411E0873F9F4FF4F20E94AB0B58EEE52E53E0F52EB7010E940F
:203BC000B54418161906ACF50E94AB0BB7010E94B544BC01CE0149960E947D126CE174E016
:203BE000CE014F960E94C512BE01675E7F4FCE014F960E944412BC01CE0143960E94BD12C4
:203C00000E94B30B1816190634F50E94B30B01E00A973CF100E00E94B30B181619060CF036
:203C20005EC00E94B30BBC01CE0185960E947D1236C00E94AB0BB7010E94B5449195819551
:203C40009109C7CF0E94AB0BB7010E94B5449195819591099ECF0E94B30B01E0873F9F4F51
:203C6000CCF20E94B30B181619069CF50E94B30BBC01CE018B960E947D126CE174E0CE019A
:203C8000C1960E94C512BE01655D7F4FCE01C1960E944412BC01CE0185960E94BD120E942D
:203CA000B90B181619060CF50E94B90BFF24F3940A9714F1F12C0E94B90B181619060CF070
:203CC000DAC00E94B90BBC01CE01CD960E947D1235C00E94B30B919581959109C9CF0E945F
:203CE000B30B9195819591099ECF0E94B90BFF24F394873F9F4FF4F20E94B90B1816190666
:203D00000CF0B3C00E94B90BBC01CE018D5B9F4F0E947D126CE174E0CE01875B9F4F0E9459
:203D2000C512BE016D5B7F4FCE01875B9F4F0E944412BC01CE01CD960E94BD12BE01635CE2
:203D40007F4FCE01C7960E94BD12BE016B5D7F4FCE01C7960E944412BE016D5E7F4F0E9485
:203D60004412BC01CE010D960E94BD12AE01495F5F4FBE01635F7F4FCE0101960E941E13C0
:203D8000BE016F5F7F4F87E599E00E94A411CE0101960E948D10CE010D960E948D10CE0167
:203DA000C7960E948D10CE01CD960E948D10FF2051F0CE01875B9F4F0E948D10CE018D5B01
:203DC0009F4F0E948D10CE0185960E948D10002341F0CE01C1960E948D10CE018B960E9442
:203DE0008D10CE0143960E948D10112341F0CE014F960E948D10CE0149960E948D10CE012B
:203E000007960E948D108091BB059091BC05019709F07ACE0E94AB0B08EE13E0B8010E949E
:203E2000B544181619066CF50E94AB0BB8010E94B54411E00A9774F110E00E94AB0B28EEDA
:203E4000E22E23E0F22EB7010E94B544181619060CF06AC00E94AB0BB7010E94B544BC0101
:203E6000CE010D960E947D123DC00E94B90B91958195910949CF0E94B90B91958195910912
:203E800022CF0E94AB0BB8010E94B54411E0873F9F4F94F20E94AB0B38EEE32E33E0F32E97
:203EA000B7010E94B54418161906ACF50E94AB0BB7010E94B544BC01CE0143960E947D1280
:203EC0006CE174E0CE0149960E94C512BE016D5E7F4FCE0149960E944412BC01CE010D96ED
:203EE0000E94BD120E94B30B1816190634F50E94B30B01E00A973CF100E00E94B30B1816FE
:203F000019060CF05EC00E94B30BBC01CE014F960E947D1236C00E94AB0BB7010E94B544C5
:203F2000919581959109C7CF0E94AB0BB7010E94B54491958195910992CF0E94B30B01E0F2
:203F4000873F9F4FCCF20E94B30B181619069CF50E94B30BBC01CE0185960E947D126CE12C
:203F600074E0CE018B960E94C512BE016B5D7F4FCE018B960E944412BC01CE014F960E9434
:203F8000BD120E94B90B181619060CF50E94B90BFF24F3940A9714F1F12C0E94B90B181637
:203FA00019060CF0ACC00E94B90BBC01CE01C7960E947D1234C00E94B30B919581959109D0
:203FC000C9CF0E94B30B9195819591099ECF0E94B90BFF24F394873F9F4FF4F20E94B90B96
:203FE000181619060CF085C00E94B90BBC01CE01CD960E947D126CE174E0CE018D5B9F4F67
:204000000E94C512BE01635C7F4FCE018D5B9F4F0E944412BC01CE01C7960E94BD12BE0125
:20402000695C7F4FCE01C1960E94BD12BE01615E7F4FCE01C1960E944412BE01635F7F4F9D
:204040000E944412BC01CE0107960E94BD12CE01875B9F4F0E948B17AE01495F5F4FBE0127
:20406000675B7F4FCE0101960E941E13BE016F5F7F4F87E599E00E94A411CE0101960E94D8
:204080008D10CE01875B9F4F0E948D10CE0107960E948D10CE01C1960E948D10CE01C79669
:2040A0000E948D10FF2049F0CE018D5B9F4F0E948D10CE01CD960E948D10CE014F960E94BE
:2040C0008D10002341F0CE018B960E948D10CE0185960E948D10CE010D960E948D101123B2
:2040E00009F412CDCE0149960E948D10CE01439609CD0E94B90B91958195910977CF0E9455
:20410000B90B91958195910950CF1092B905FCCC81E090E069C90C94A3430C949B438F9296
:204120009F92AF92BF92CF92DF92EF92FF920F931F93CF93DF9388E090E0EFDFC82FC82E1D
:20414000D12C89E090E0E9DF882EE82EF12C8AE090E0E3DF082F10E0912CB12CA12CBA2CC8
:20416000A92C982C8824AC2A882AD0E0C0E0B501A401CE010E94E9012196C830D105B9F737
:204180000E9479088EEB91E00E94A21089EB91E00E943305C6010E94451182EB91E00E94C0
:2041A0003305C7010E9445118CEA91E00E943305C801DF91CF911F910F91FF90EF90DF90E0
:2041C000CF90BF90AF909F908F900C9445112F923F924F925F926F927F928F929F92AF92A5
:2041E000BF92CF92DF92EF92FF920F931F93CF93DF93CDB7DEB7CC55D1090FB6F894DEBF60
:204200000FBECDBF0E94620920E137E240E050E00E94C043672B682B692B01F58091600603
:204220008823E1F00E940610E0905E06F0905F0600915C0610915D0620915A0630915B0667
:204240004091610650916206609158067091590680915606909157060E949209AA24A39401
:204260009AE0B92E01E023E0F22E32E0E32E8FED96E00E94A7046C01892B09F4BBC18FED61
:2042800096E00E948504182F8091A5099091A609A091A709B091A8090196A11DB11D80939E
:2042A000A5099093A609A093A709B093A809143209F58091BF0984FF0FC00E945408609347
:2042C000AD097093AE098093AF099093B0098091BF098F7E8093BF091092BB0910929C0959
:2042E0000093C0091092BD098091BF098D7F8093BF09BDCF8091C009823099F51A3229F42B
:20430000F092C0091092BD09B2CF80EE810F8F3570F48091BB0981278093BB0980919C0939
:20432000863061F4812F0E945A02811107C01092BA0910929C091092C00999CF1C3259F451
:204340008091BF098D7F8093BF098091BC098F5F8093BC09D7CF8091BD098F5F8093BD09BD
:2043600086CF813009F063C09091BB0991279093BB091C3269F490919C099923D1F2109205
:20438000BA098093BC091092BD09E092C0096FCF9090BD0921E0291510F00C94AE348EEF7D
:2043A000882E890C80919C09882309F43EC08150E82FF0E0EE0FFF1FEC5FFE4F2591349170
:2043C00050E040E0C82CD12C61E0680F70E0F901EC0DFD1DE4911E1711F40C94AB341E1724
:2043E0000CF4A7CF77247394780E873009F4A1CFFB01E40FF51FEE0FFF1FEC5FFE4FA5910F
:20440000B49190E080E0881558F4F901E80FF91F6490FD01E80FF91FE49101966E1699F378
:204420004F5F5F4F872D9D01D2CF80E0C1CF833009F0D0C010628FE9810F863038F5175538
:204440009091BD098091BB09911122C00093BD0990E024E0959587952A95E1F71817190624
:2044600009F405CF8091A1099091A209A091A309B091A4090196A11DB11D8093A109909316
:20448000A209A093A309B093A40951CF1053D8CF8F7021E0811301C020E081130C94B33408
:2044A0008091BF0981FF0DC020919C098D7F8093BF099F5F9093BD09263019F48CE20E943F
:2044C0005A0280919D0990919E09A0919F09B091A0090196A11DB11D80939D0990939E0998
:2044E000A0939F09B093A00990919C0921E0923009F020E08091BF0920FB84F98093BF0927
:204500001092C0092091CB09211169C08091BA0980FF0CC02091B9093091CA0930FF04C037
:204520003091C909321710F42093C90981FF0CC02091B5092093C5092091B6092093C609E8
:204540002091B7092093C70982FF10C08091B3098093C3098091B2098093C2098091B109F5
:204560008093C1098091B8098093C8098091BA092091CA09822B8093CA09923009F077CEBD
:204580008091CD09B89EC0011124FC01E653F64F208122FF16C08456964FFC0184A581115E
:2045A00010C08091AD099091AE09A091AF09B091B0098093A9099093AA09A093AB09B093E4
:2045C000AC091092CD098091CB09811150CEA092CB094DCE81114BCE10929C0948CE886008
:2045E0008093BF091092CC098091CB0981508093CB098CCF8091CB09882309F403C2CE0150
:2046000049960E94AB0F8091CB098823C1F081508093CB098091CC092AE0289FC0011124B9
:20462000FC01EF53F64FDE01599601900D922A95E1F78F53964F0E94AB0F1092CC098AE05D
:20464000FE017996A2E9B9E001900D928A95E1F70E94620900915D0510915E0520915F05E8
:2046600030916005601B710B820B930B00912D0210912E0220912F02309130020617170751
:204680002807390770F480E497E7ABE1B0E080932D0290932E02A0932F02B0933002109239
:2046A0002C0280912C028111B8C080919409883108F0B3C0809193098C3308F0AEC08091CE
:2046C00092098C3308F0A9C080919609803208F0A4C0809197098D3008F09FC080919809EA
:2046E0008451990B0B9708F098C080919B098B7F80939B0984E191E00E94A2108091940901
:204700000E947411809193090E947411809192090E947411E0909809F12C0091970910E07C
:204720002091960930E04091920950E06091930970E08091940990E00E9492090E94540847
:204740000091A9091091AA092091AB093091AC09601B710B820B930B6032714A874091051B
:2047600098F08091280690912906A0912A06B0912B060196A11DB11D809328069093290699
:20478000A0932A06B0932B06A0916202B091630220E13EE00E94EC44009128061091290687
:2047A00020912A0630912B06DC01CB01800F911FA21FB31F8093280690932906A0932A06B5
:2047C000B0932B060E94AB0B4C010E94B30B082F0E94B90BB82E0E94BF0BF82E0E94C50BD9
:2047E000182F0E94DA0B382FC40168EE73E00E94B544E82E2B2D4F2D612F832F0E94020D9E
:2048000081E080932C020E94620960935D0570935E0580935F059093600510925105109295
:20482000520510925305109254058CE298E090935805809357050091290810E010935A05A3
:20484000009359058091F60890E090935C0580935B05809125088530B1F5809129088A315B
:2048600008F405C180912C0890912D08843F914008F0CEC010925605109255058FEF9FEFBC
:20488000DC018093510590935205A0935305B09354058BE090E090934E0580934D0560918A
:2048A000510570915205809153059091540540E10E94021184E194E00E94951082E08093FC
:2048C000250810922908609151057091520585E899E00E94500F90934C0580934B050197E3
:2048E00021F483E991E00E94A21080914B0590914C05019621F485E891E00E94A2106091D0
:2049000051057091520588E799E00E94500F90934A0580934905019721F48CE791E00E94FA
:20492000A2108091490590914A05019621F480E791E00E94A21060915105709152058BE60E
:2049400099E00E94500F9093480580934705019721F485E691E00E94A210809147059091B3
:204960004805019621F487E591E00E94A2100091540610915506F8018081882309F4E9C1DA
:204980000E9462098090080590900905A0900A05B0900B05681979098A099B0980900405DD
:2049A00090900505A0900605B090070586169706A806B90608F0CDC10E9462092B013C01A4
:2049C000409208055092090560920A0570920B0530E020E078014AE0F801B1908F0180ED0B
:2049E0008B0D8A3008F0EBC0429FC001439F900D11242B2DBB0C330B20533109280F391FD3
:204A00007F01EACF80919B098B7F80939B0920CE80912E0890912F0885974B9740F5E5E260
:204A2000F8E082E090E040E050E0BA01DC011196209129082A171B0609F00CF496C0238502
:204A40003485275031092730310508F08DC025853685235131092F30310508F478C0258594
:204A600036852A5031092930310508F478C0063011050CF423CF55E2252E58E0352E63E05E
:204A8000E62EF12C75EC872E7DE9972E7CE1A72E71E8B72EE016F1060CF080C0F10165852F
:204AA00076856184728490E080E00E9486426D966CAF7DAF8EAF9FAF6D97B30190E080E089
:204AC0000E9486422B013C012DEC3CEC4CE45FE30E94E7429B01AC016D966CAD7DAD8EADBB
:204AE0009FAD6D970E948242F0E0E0E087FD18C02DEC3CEC4CE45FE36D966CAD7DAD8EADE0
:204B00009FAD6D970E94E7429B01AC01C301B2010E948242E2E0F0E087FD02C0E1E0F0E0EB
:204B2000A501940163E971E080E091E00E94B1434F01FF0FAA08BB0886269726A826B9264D
:204B4000FFEFEF1AFF0A22E0220E311CA3CF440F551F661F771F41600296349667CF440FF6
:204B6000551F661F771FF8CFCD0101979595879590935605809355050C972CF41092560588
:204B80001092550574CF4093510550935205609353057093540584E090E07DCE8092510545
:204BA00090925205A0925305B092540580E290E090935605809355058FEF9FEF6CCE309391
:204BC000660520936505609161057091620580916305909164052115310511F1032E000CE0
:204BE000440B550B0E94C84420930405309305054093060550930705EFE9EB0DE730B0F477
:204C00000E2E000CFF0B8827E75FF94D8F4F0C94E444BB27BD27AF27B327B527B727B92751
:204C20002091340230E050E040E0DCCF10920305F7018181833241F4809103058F5F8093DA
:204C4000030587010E5F1F4FF80180818E32F1F48090040590900505A0900605B090070580
:204C6000C501B40122E030E040E050E00E94C844820E931EA41EB51E80920405909205058C
:204C8000A0920605B09207050F5F1F4FF801808180538A3008F073C1809302050F5F1F4F04
:204CA000F80180818C3211F40F5F1F4FE0910305EE2309F44EC08090040590900505A09053
:204CC0000605B0900705809102058450990B4CE0489F9001499F300D1124E20FF32FF11DCE
:204CE000EE0FFF1FEE57FD4FB501A401808191810E948F060E94620964197509860997092C
:204D000086169706A806B90620F50E946209609308057093090580930A0590930B05809154
:204D2000DE06813009F430C1823009F433C1811105C080916E008D7F80936E0060E0809199
:204D4000DD060E94260685E291E00E94A21010E000E010935506009354060E94620900911D
:204D60004305109144052091450530914605601B710B820B930B6932710581059105F8F0C3
:204D80008091DE06813009F40BC1823009F40BC1811105C080916E008695817031F4809111
:204DA0003B02811103C10E94730D0E946209609343057093440580934505909346058091CE
:204DC000BB059091BC05892B21F08091BA05811106C080916705811102C00E946D198EE3DA
:204DE00099E00E94E00B85E299E00E94E00B8CE099E00E94E00B80916705811159C1109203
:204E0000B20580913E0990913F09181619063CF080914B0590914C05019709F048C281E0D2
:204E20008093BA05109255061092540644E650E060E070E088EE93E00E948F060E94620990
:204E4000609368057093690580936A0590936B058091BB059091BC0501968630910509F4D9
:204E600054C19093BC058093BB052091BB053091BC058901000F111FF801EC5FFD4F808119
:204E80008093B205D9011197FD01EE0FFF1FE05DFC4F608171816115710509F4F9C1AB0103
:204EA00041505109FA01EE0FFF1FE85FFC4F0190F081E02DAE17BF0709F0EAC16230710519
:204EC00009F028C188E1EAE6F2E0DE01119601900D928A95E1F78091540290915502837066
:204EE0009927892B21F48DE190E09C838B8380915202909153020197880F991FE1E0F0E0CB
:204F0000EC0FFD1F8E0F9F1F2091500230915102FC0180819181821793070CF0FBC08AE0A4
:204F200090E09093BC058093BB05C45ADF4F0FB6F894DEBF0FBECDBFDF91CF911F910F9197
:204F4000FF90EF90DF90CF90BF90AF909F908F907F906F905F904F903F902F90089581E031
:204F60008093030565CE83E0FBCF85E0F9CF86E0F7CF88E0F5CF8AE0F3CF8CE0F1CF8091C8
:204F80003302809302058CCE80916F008D7F80936F00D4CE809170008D7F80937000CECE0C
:204FA00080916F00F9CE80917000F6CE809163068111FBCE00910E0510910F05F801EE0F41
:204FC000FF1FE00FF11FDF01AA0FBB1FAC51BD4F8D919C914AE0489F9001499F300D1124F1
:204FE0008091020290910302280F391F3093030220930202DF01AA0FBB1FAA51BD4F8D91D0
:205000009C91489FB001499F700D11248091390590913A05860F971F90933A058093390584
:20502000EE0FFF1FE851FD4F60817181469F4001479F900C11244091370550913805840E63
:20504000951E9092380580923705912CB12CA22E982AB501A401C6010E94E901FFEFCF1A3F
:20506000DF0A28E0C216D104A1F70E94790880910C0590910D05019690930D0580930C0592
:20508000499751F40F5F1F4F10930F0500930E0510920D0510920C0580910E0590910F05F2
:2050A00006970CF482CE10920F0510920E057DCE0E946209009168051091690520916A0513
:2050C00030916B05601B710B820B930B61367A4E8105910508F495CE10926705E091BB0564
:2050E000F091BC05EE0FFF1FE85AFC4F808191819093BC058093BB05880F991FFC01EC5F65
:20510000FD4F80818093B2057CCE1092BC051092BB05ABCE109267055093BC054093BB05AB
:20512000452BB9F40E94AB0B7C010E94B30B8C010E94B90B40914C0250914D0260914A029E
:2051400070914B029C0180914802909149020E9492098091BB059091BC050197B9F582E500
:2051600091E00E94330580915002909151020E9445118BE491E00E943305809152029091D5
:2051800053020E944511E0905402F0905502F0E3EF1AF8EFFF0A009152021091530280906E
:2051A0005002909051020E94BF0B5C010E94C50B6C010E94DA0B9401A501B6010E949209CC
:2051C00060914E028DE090E00E948B208091BB059091BC050297C1F46091560282E090E048
:2051E0000E948B206091580283E090E00E948B2060915A0284E090E00E948B2060915C023A
:2052000086E090E00E948B208091BB059091BC05039731F460915E0281E090E00E948B208A
:205220008091BB059091BC05049731F4609160028BE090E00E948B208091BB059091BC05CD
:20524000059739F460916202645F8CE090E00E948B200E94AB0B5C010E94B30B082F0E9456
:20526000B90BD82E0E94BF0BF82E0E94C50B182F0E94DA0B382FC50168EE73E00E94B54421
:20528000E82E2D2D4F2D612F832F0E94020D4DCE2331310561F0295031092230310538F0D6
:2052A0000E94D213F801E45CFD4F9183808380913E0990913F0997FD07C080914B0590912D
:2052C0004C05019609F05AC244E650E060E070E088EE93E00E948F0680916705811134C1C3
:2052E0000091BB051091BC050E946209609368057093690580936A0590936B05012B09F0E3
:2053000023C10E94BF0B18161906ACF40E94BF0B01E00A97B4F000E00E94BF0B1816190625
:205320000CF052C00E94BF0BBC01CE018D5A9F4F0E947D1228C00E94BF0B01E0873F9F4F78
:2053400054F30E94BF0B18161906C4F50E94BF0BBC01CE01835B9F4F0E947D126CE174E0FE
:20536000CE01895B9F4F0E94C512BE01635B7F4FCE01895B9F4F0E944412BC01CE018D5ABC
:205380009F4F0E94BD120E94C50B1816190614F50E94C50BFF24F3940A971CF1F12C0E945D
:2053A000C50B181619060CF05AC00E94C50BBC01CE018F5B9F4F0E947D1232C00E94BF0B55
:2053C000919581959109C4CF0E94BF0B919581959109AACF0E94C50BFF24F394873F9F4FD9
:2053E000ECF20E94C50B181619069CF50E94C50BBC01CE01CB960E947D126CE174E0CE017F
:20540000C5960E94C512BE01655C7F4FCE01C5960E944412BC01CE018F5B9F4F0E94BD1273
:205420000E94DA0B1816190604F50E94DA0B11E00A970CF110E00E94DA0B181619060CF0C9
:20544000D1C20E94DA0BBC01CE0189960E947D1231C00E94C50B919581959109C9CF0E94E3
:20546000C50B919581959109A2CF0E94DA0B11E0873F9F4FFCF20E94DA0B181619060CF02B
:20548000ABC20E94DA0BBC01CE0183960E947D126CE174E0CE0101960E94C512BE016D5D39
:2054A0007F4FCE0101960E944412BC01CE0189960E94BD12BE01675D7F4FCE018F960E94BD
:2054C000BD12BE016F5B7F4FCE018F960E944412BE016D5A7F4F0E944412BC0187E599E0CC
:2054E0000E94A812CE018F960E948D10CE0189960E948D10112341F0CE0101960E948D10E6
:20550000CE0183960E948D10CE018F5B9F4F0E948D10FF2041F0CE01C5960E948D10CE01F6
:20552000CB960E948D10CE018D5A9F4F0E948D10002351F0CE01895B9F4F0E948D10CE01D5
:20554000835B9F4F0E948D108091BB059091BC05019709F0DAC00E94B90B90935102809373
:2055600050020E94B30B90935302809352020E94AB0B68EE73E00E94B544BC0190935502C7
:205580008093540220914E0230914F020996232B09F03CC277FF03C0719561957109439722
:2055A00008F026C2CE01835B9F4F0E947D126CE174E0CE01895B9F4F0E94C512BE01635B07
:2055C0007F4FCE01895B9F4F0E944412BC01CE018D5A9F4F0E94BD1211E08091520290911B
:2055E0005302BC0197FF04C066277727681B790B0996439708F003C2CE01CB960E947D1276
:205600006CE174E0CE01C5960E94C512BE01655C7F4FCE01C5960E944412BC01CE018F5B60
:205620009F4F0E94BD1201E08091500290915102BC0197FF04C066277727681B790B09966B
:20564000439708F03FC2CE0183960E947D126CE174E0CE0101960E94C512BE016D5D7F4F87
:20566000CE0101960E944412BC01CE0189960E94BD12FF24F394BE01675D7F4FCE018F96C1
:205680000E94BD12BE016F5B7F4FCE018F960E944412BE016D5A7F4F0E944412BC0187E5E1
:2056A00099E00E94A812CE018F960E948D10CE0189960E948D10FF2041F0CE0101960E945D
:2056C0008D10CE0183960E948D10CE018F5B9F4F0E948D10002341F0CE01C5960E948D1063
:2056E000CE01CB960E948D10CE018D5A9F4F0E948D10112351F0CE01895B9F4F0E948D1003
:20570000CE01835B9F4F0E948D10E091BB05F091BC05EE0FFF1FE85AFC4F2081318130937E
:20572000BC052093BB052D30310549F481E090E090935D0280935C0280E88093A20580916E
:20574000670591E08927809367058901000F111FF801EC5FFD4F80818093B205A9014251DC
:2057600051094230510550F02930310539F00E94D213F801E45CFD4F9183808380912509AD
:2057800090912609009709F0A3C18091490590914A050197E1F481E08093BA051092550659
:2057A0001092540644E650E060E070E088EE93E00E948F060E94381780916705811107C01C
:2057C0001092630660E087E090E00E948B208091410590914205019609F083C18091270986
:2057E000882309F47EC11092B405809167058823F9F00E94620900913D0510913E052091E1
:205800003F0530914005601B710B820B930B673971058105910560F00E94620960933D0558
:2058200070933E0580933F05909340050E94381780910C0990910D09009709F056C180915D
:20584000470590914805019771F511E01093BA05109255061092540644E650E060E070E05A
:2058600088EE93E00E948F060E94DA1680916705811119C01093630661E087E090E00E94C8
:205880008B206091020288E090E00E948B206091390589E090E00E948B20609137058AE057
:2058A00090E00E948B2080913B0590913C05019609F024C180910E09882309F41FC1809142
:2058C00067051092B305882321F10E94620900913305109134052091350530913605601B33
:2058E000710B820B930B673971058105910508F451C00E946209609333057093340580933B
:205900003505909336050E94DA1680916705811141C0809125099091260997FD06C0809153
:20592000490590914A050196B1F444E650E060E070E088EE93E00E948F0681E080933B02B2
:2059400061E090E080E00E948B2084E491E00E94A2100E948F2080910C0990910D0997FD7A
:2059600006C08091470590914805019699F444E650E060E070E088EE93E00E948F061092C6
:205980003B0260E090E080E00E948B208CE391E00E94A210E091BB05F091BC05E431F105BB
:2059A00008F0C3CA8827E852F34D8F4F0C94E444822DB32DA1317F32AB32EF32952795270B
:2059C00095274B3374337433743395279527952795279527AB32EF320E94DA0B919581952B
:2059E000910951CD0E94DA0B9195819591092BCDCE018D5A9F4F0E947D1210E0EECDCE014B
:205A00008F5B9F4F0E947D1200E00ECE77FF03C0719561957109439708F046C0CE01835B8D
:205A20009F4F0E947D126CE174E0CE01895B9F4F0E94C512BE01635B7F4FCE01895B9F4FA0
:205A40000E944412BC01CE018D5A9F4F0E94BD1211E08091500290915102BC0197FF04C09D
:205A600066277727681B790B0996439720F5CE01CB960E947D126CE174E0CE01C5960E9498
:205A8000C512BE01655C7F4FCE01C5960E944412BC01CE018F5B9F4F0E94BD1201E08091F8
:205AA000520290915302C4CDCE018D5A9F4F0E947D1210E0CECFCE018F5B9F4F0E947D1251
:205AC00000E0EDCFCE0189960E947D12F12CD3CD9093420580934105181619060CF45BCE15
:205AE00054CE81E08093B405A3CE90933C0580933B05181619060CF4A8CEA1CE81E0809389
:205B0000B30503CF8091B90581111EC00E94BF0B209100023091010282179307E9F00E942B
:205B2000BF0B9093010280930002CE0101960E948B17BE016F5F7F4F87E599E00E94A4111F
:205B4000CE0101960E948D100E94BF0B80FDFDC480EC8093A205FBC467E579E0CE01019606
:205B60000E94BD12E6CF8091B9058111FCC280912B05811111C00E94620967517C4F8F4FCE
:205B80009F4F60932705709328058093290590932A0581E080932B0580911F0581114BC1BE
:205BA0000E94AB0B08EE13E0B8010E94B544181619060CF50E94AB0BB8010E94B54401E075
:205BC0000A9714F100E00E94AB0B68EEE62E63E0F62EB7010E94B544181619060CF05FC05B
:205BE0000E94AB0BB7010E94B544BC01CE0101960E947D1231C00E94AB0BB8010E94B54409
:205C000001E0873F9F4FF4F20E94AB0B78EEE72E73E0F72EB7010E94B54418161906B4F575
:205C20000E94AB0BB7010E94B544BC01CE0183960E947D126CE174E0CE0189960E94C512DB
:205C4000BE016D5D7F4FCE0189960E944412BC01CE0101960E94BD120E94B30B18161906C6
:205C60003CF50E94B30BFF24F3940A9744F1F12C0E94B30B181619060CF05FC00E94B30BCE
:205C8000BC01CE018F960E947D1237C00E94AB0BB7010E94B544919581959109C6CF0E9473
:205CA000AB0BB7010E94B5449195819591099DCF0E94B30BFF24F394873F9F4FC4F20E9483
:205CC000B30B181619069CF50E94B30BBC01CE01C5960E947D126CE174E0CE01CB960E943D
:205CE000C512BE016B5C7F4FCE01CB960E944412BC01CE018F960E94BD120E94B90B18169B
:205D000019060CF50E94B90B11E00A9714F110E00E94B90B181619060CF0F1C00E94B90BB0
:205D2000BC01CE01895B9F4F0E947D1235C00E94B30B919581959109C9CF0E94B30B91958B
:205D4000819591099DCF0E94B90B11E0873F9F4FF4F20E94B90B181619060CF0CAC00E945B
:205D6000B90BBC01CE01835B9F4F0E947D126CE174E0CE018D5A9F4F0E94C512BE01635B9B
:205D80007F4FCE018D5A9F4F0E944412BC01CE01895B9F4F0E94BD12BE01695B7F4FCE01AA
:205DA0008F5B9F4F0E94BD12BE01615D7F4FCE018F5B9F4F0E944412BE016F5F7F4F0E94B3
:205DC0004412BC0189E195E00E94BD1281E080931F05CE018F5B9F4F0E948D10CE01895B2F
:205DE0009F4F0E948D10112351F0CE018D5A9F4F0E948D10CE01835B9F4F0E948D10CE0175
:205E00008F960E948D10FF2041F0CE01CB960E948D10CE01C5960E948D10CE0101960E94EE
:205E20008D10002341F0CE0189960E948D10CE0183960E948D1000914E0210914F02809139
:205E40001105811105C00093100581E0809311050E946209C0902705D0902805E0902905EF
:205E6000F0902A056C197D098E099F09693E73408105910530F4809110058017110609F4BE
:205E800061C10E94620960932705709328058093290590932A05012B09F073C10E94AB0B40
:205EA00008EE13E0B8010E94B544181619066CF50E94AB0BB8010E94B54401E00A9774F164
:205EC00000E00E94AB0B48EEE42E43E0F42EB7010E94B544181619060CF06BC00E94AB0BDE
:205EE000B7010E94B544BC01CE0101960E947D123DC00E94B90B91958195910932CF0E941F
:205F0000B90B9195819591090BCF0E94AB0BB8010E94B54401E0873F9F4F94F20E94AB0BEE
:205F200058EEE52E53E0F52EB7010E94B54418161906B4F50E94AB0BB7010E94B544BC0101
:205F4000CE0183960E947D126CE174E0CE0189960E94C512BE016D5D7F4FCE0189960E9439
:205F60004412BC01CE0101960E94BD120E94B30B181619063CF50E94B30BFF24F3940A97AE
:205F800044F1F12C0E94B30B181619060CF05FC00E94B30BBC01CE018F960E947D1237C0AE
:205FA0000E94AB0BB7010E94B544919581959109C6CF0E94AB0BB7010E94B54491958195E4
:205FC000910991CF0E94B30BFF24F394873F9F4FC4F20E94B30B181619069CF50E94B30BB5
:205FE000BC01CE01C5960E947D126CE174E0CE01CB960E94C512BE016B5C7F4FCE01CB96BB
:206000000E944412BC01CE018F960E94BD120E94B90B181619060CF50E94B90B11E00A97BA
:2060200014F110E00E94B90B181619060CF0A3C00E94B90BBC01CE01895B9F4F0E947D1264
:2060400035C00E94B30B919581959109C9CF0E94B30B9195819591099DCF0E94B90B11E084
:20606000873F9F4FF4F20E94B90B181619060CF07CC00E94B90BBC01CE01835B9F4F0E943B
:206080007D126CE174E0CE018D5A9F4F0E94C512BE01635B7F4FCE018D5A9F4F0E944412CC
:2060A000BC01CE01895B9F4F0E94BD12BE01695B7F4FCE018F5B9F4F0E94BD12BE01615D2B
:2060C0007F4FCE018F5B9F4F0E944412BE016F5F7F4F0E944412BC0189E195E00E94A81208
:2060E000CE018F5B9F4F0E948D10CE01895B9F4F0E948D10112351F0CE018D5A9F4F0E941F
:206100008D10CE01835B9F4F0E948D10CE018F960E948D10FF2041F0CE01CB960E948D1016
:20612000CE01C5960E948D10CE0101960E948D10002341F0CE0189960E948D10CE018396E8
:206140000E948D1069E175E0CE0101960E94BD12BE016F5F7F4F87E599E00E94A411CE0124
:2061600001960E948D1080E4F4CC0E94B90B91958195910980CF0E94B90B9195819591095E
:2061800059CF0E94AB0B08EE13E0B8010E94B544181619060CF50E94AB0BB8010E94B54448
:2061A00001E00A9714F100E00E94AB0B28EEE22E23E0F22EB7010E94B544181619060CF03B
:2061C0005FC00E94AB0BB7010E94B544BC01CE0101960E947D1231C00E94AB0BB8010E94FD
:2061E000B54401E0873F9F4FF4F20E94AB0B38EEE32E33E0F32EB7010E94B54418161906C8
:20620000B4F50E94AB0BB7010E94B544BC01CE0183960E947D126CE174E0CE0189960E9423
:20622000C512BE016D5D7F4FCE0189960E944412BC01CE0101960E94BD120E94B90B181622
:2062400019063CF50E94B90BFF24F3940A9744F1F12C0E94B90B181619060CF058C00E9482
:20626000B90BBC01CE018F960E947D1237C00E94AB0BB7010E94B544919581959109C6CF6B
:206280000E94AB0BB7010E94B5449195819591099DCF0E94B90BFF24F394873F9F4FC4F297
:2062A0000E94B90B1816190664F50E94B90BBC01CE01C5960E947D126CE174E0CE01CB9683
:2062C0000E94C512BE016B5C7F4FCE01CB960E944412BC01CE018F960E94BD120E94B30B47
:2062E00018161906D4F40E94B30B11E00A97DCF010E00E94B30B1816190604F50E94B30BD5
:2063000099CE0E94B90B919581959109D0CF0E94B90B919581959109A4CF0E94B30B11E03B
:20632000873F9F4F2CF30E94B30B181619061CF40E94B30BA0CE0E94B30B19CF0E94B30B57
:206340001CCF80915A0290915B02BC0197FF04C066277727681B790B0996439708F0BBC032
:20636000CE01835B9F4F0E947D126CE174E0CE01895B9F4F0E94C512BE01635B7F4FCE017C
:20638000895B9F4F0E944412BC01CE018D5A9F4F0E94BD1211E08091580290915902BC01CC
:2063A00097FF04C066277727681B790B0996439708F098C0CE01CB960E947D126CE174E086
:2063C000CE01C5960E94C512BE01655C7F4FCE01C5960E944412BC01CE018F5B9F4F0E94A4
:2063E000BD1201E08091560290915702BC0197FF04C066277727681B790B0996439708F050
:2064000078C0CE0183960E947D126CE174E0CE0101960E94C512BE016D5D7F4FCE010196EE
:206420000E944412BC01CE0189960E94BD12FF24F394BE01675D7F4FCE018F960E94BD12E8
:20644000BE016F5B7F4FCE018F960E944412BE016D5A7F4F0E944412BC0187E599E00E9469
:20646000A812CE018F960E948D10CE0189960E948D10FF2041F0CE0101960E948D10CE013E
:2064800083960E948D10CE018F5B9F4F0E948D10002341F0CE01C5960E948D10CE01CB96D1
:2064A0000E948D10CE018D5A9F4F0E948D10112351F0CE01895B9F4F0E948D10CE01835BB8
:2064C0009F4F0E948D1080915C0290915D020197E1F580E83ECBCE018D5A9F4F0E947D12EC
:2064E00010E059CFCE018F5B9F4F0E947D1200E079CFCE0189960E947D12F12C9ACF6091EE
:206500005E0270915F02CE0183960E947D126BE174E0CE0101960E94C512BE016D5D7F4FCA
:20652000CE0101960E9444126BE174E00E943012BC0187E599E00E94A812CE0101960E9473
:206540008D10CE0183960E948D101092A2050E94AF100C9495278091B905811139C081E0B6
:206560002091600230916102232B09F480E00E94330E6B017C01BC01A601CE0101960E9401
:206580001F14BE016F5F7F4F87E599E00E94A411CE0101960E948D10809160029091610295
:2065A000892B99F480E48093A2051091A20520E030E0A901C701B6010E94824287FF08C047
:2065C00010681093A2050C9495271092A205EDCF8091A2058F778093A2050C9495278091B3
:2065E000620290916302BC0197FF04C066277727681B790B0996439708F045C0CE0183960A
:206600000E947D126CE174E0CE0101960E94C512BE016D5D7F4FCE0101960E944412BC0157
:20662000CE0189960E94BD1211E0BE01675D7F4FCE018F960E94BD1269E174E0CE018F96C2
:206640000E943012BC0187E599E00E94A812CE018F960E948D10CE0189960E948D101123C4
:2066600041F0CE0101960E948D10CE0183960E948D10809162029091630297FD0AC0109222
:20668000A2050C949527CE0189960E947D1210E0CCCF80E8A0CF80914E0290914F02892BEF
:2066A000A1F46EE174E087E599E00E94741283E090E090931902809318028CE090E0909358
:2066C0001B0280931A020C94952765E274E087E599E00E9474128CE090E09093190280933D
:2066E000180283E090E0EBCF6091540270915502CB01099677FF03C0719561957109209189
:206700004E0230914F02232B09F0C8C0439708F0B7C0CE01835B9F4F0E947D126CE174E092
:20672000CE01895B9F4F0E94C512BE01635B7F4FCE01895B9F4F0E944412BC01CE018D5AE8
:206740009F4F0E94BD1211E08091520290915302BC0197FF04C066277727681B790B099626
:20676000439708F094C0CE01CB960E947D126CE174E0CE01C5960E94C512BE01655C7F4F00
:20678000CE01C5960E944412BC01CE018F5B9F4F0E94BD1201E08091500290915102BC018D
:2067A00097FF04C066277727681B790B0996439708F0CBC0CE0183960E947D126CE174E097
:2067C000CE0101960E94C512BE016D5D7F4FCE0101960E944412BC01CE0189960E94BD1209
:2067E000FF24F394BE01675D7F4FCE018F960E94BD12BE016F5B7F4FCE018F960E944412F6
:20680000BE016D5A7F4F0E944412BC0187E599E00E94A812CE018F960E948D10CE0189960D
:206820000E948D10FF2041F0CE0101960E948D10CE0183960E948D10CE018F5B9F4F0E94B4
:206840008D10002341F0CE01C5960E948D10CE01CB960E948D10CE018D5A9F4F0E948D108C
:20686000112311F40C949527CE01895B9F4F0E948D10CE01835B9F4F0E948D100C9495276D
:20688000CE018D5A9F4F0E947D1210E05DCFCE018F5B9F4F0E947D1200E07DCF439708F031
:2068A00046C0CE01835B9F4F0E947D126CE174E0CE01895B9F4F0E94C512BE01635B7F4F00
:2068C000CE01895B9F4F0E944412BC01CE018D5A9F4F0E94BD1211E0809150029091510285
:2068E000BC0197FF04C066277727681B790B0996439720F5CE01CB960E947D126CE174E0BF
:20690000CE01C5960E94C512BE01655C7F4FCE01C5960E944412BC01CE018F5B9F4F0E945E
:20692000BD1201E0809152029091530238CFCE018D5A9F4F0E947D1210E0CECFCE018F5BAA
